{
	"mappingWithStructs.sol": {
		"myContracct": {
			"abi": [
				{
					"constant": false,
					"inputs": [],
					"name": "recieveMoney",
					"outputs": [],
					"payable": true,
					"stateMutability": "payable",
					"type": "function"
				}
			],
			"devdoc": {
				"methods": {}
			},
			"evm": {
				"assembly": "    /* \"mappingWithStructs.sol\":25:98  contract myContracct{\r... */\n  mstore(0x40, 0x80)\n  callvalue\n    /* \"--CODEGEN--\":8:17   */\n  dup1\n    /* \"--CODEGEN--\":5:7   */\n  iszero\n  tag_1\n  jumpi\n    /* \"--CODEGEN--\":30:31   */\n  0x0\n    /* \"--CODEGEN--\":27:28   */\n  dup1\n    /* \"--CODEGEN--\":20:32   */\n  revert\n    /* \"--CODEGEN--\":5:7   */\ntag_1:\n    /* \"mappingWithStructs.sol\":25:98  contract myContracct{\r... */\n  pop\n  dataSize(sub_0)\n  dup1\n  dataOffset(sub_0)\n  0x0\n  codecopy\n  0x0\n  return\nstop\n\nsub_0: assembly {\n        /* \"mappingWithStructs.sol\":25:98  contract myContracct{\r... */\n      mstore(0x40, 0x80)\n      jumpi(tag_1, lt(calldatasize, 0x4))\n      calldataload(0x0)\n      0x100000000000000000000000000000000000000000000000000000000\n      swap1\n      div\n      dup1\n      0xcca955a0\n      eq\n      tag_2\n      jumpi\n    tag_1:\n      0x0\n      dup1\n      revert\n        /* \"mappingWithStructs.sol\":52:93  function recieveMoney() public payable {} */\n    tag_2:\n      tag_3\n      tag_4\n      jump\t// in\n    tag_3:\n      stop\n    tag_4:\n      jump\t// out\n\n    auxdata: 0xa165627a7a7230582026fc83bf24b860a7d1f3de44e58dda294e20e0f08d00d84b51a25ea6d365e0f60029\n}\n",
				"bytecode": {
					"linkReferences": {},
					"object": "6080604052348015600f57600080fd5b5060748061001e6000396000f3fe6080604052600436106039576000357c010000000000000000000000000000000000000000000000000000000090048063cca955a014603e575b600080fd5b60446046565b005b56fea165627a7a7230582026fc83bf24b860a7d1f3de44e58dda294e20e0f08d00d84b51a25ea6d365e0f60029",
					"opcodes": "PUSH1 0x80 PUSH1 0x40 MSTORE CALLVALUE DUP1 ISZERO PUSH1 0xF JUMPI PUSH1 0x0 DUP1 REVERT JUMPDEST POP PUSH1 0x74 DUP1 PUSH2 0x1E PUSH1 0x0 CODECOPY PUSH1 0x0 RETURN INVALID PUSH1 0x80 PUSH1 0x40 MSTORE PUSH1 0x4 CALLDATASIZE LT PUSH1 0x39 JUMPI PUSH1 0x0 CALLDATALOAD PUSH29 0x100000000000000000000000000000000000000000000000000000000 SWAP1 DIV DUP1 PUSH4 0xCCA955A0 EQ PUSH1 0x3E JUMPI JUMPDEST PUSH1 0x0 DUP1 REVERT JUMPDEST PUSH1 0x44 PUSH1 0x46 JUMP JUMPDEST STOP JUMPDEST JUMP INVALID LOG1 PUSH6 0x627A7A723058 KECCAK256 0x26 0xfc DUP4 0xbf 0x24 0xb8 PUSH1 0xA7 0xd1 RETURN 0xde DIFFICULTY 0xe5 DUP14 0xda 0x29 0x4e KECCAK256 0xe0 CREATE DUP14 STOP 0xd8 0x4b MLOAD LOG2 0x5e 0xa6 0xd3 PUSH6 0xE0F600290000 "
				},
				"gasEstimates": {
					"creation": {
						"codeDepositCost": "23200",
						"executionCost": "75",
						"totalCost": "23275"
					},
					"external": {
						"recieveMoney()": "103"
					}
				},
				"methodIdentifiers": {
					"recieveMoney()": "cca955a0"
				}
			},
			"userdoc": {
				"methods": {}
			}
		}
	}
}