{
	"mappingWithStructs.sol": {
		"myContracct": {
			"abi": [
				{
					"constant": true,
					"inputs": [],
					"name": "getBalance",
					"outputs": [
						{
							"name": "",
							"type": "uint256"
						}
					],
					"payable": false,
					"stateMutability": "view",
					"type": "function"
				},
				{
					"constant": false,
					"inputs": [],
					"name": "recieveMoney",
					"outputs": [],
					"payable": true,
					"stateMutability": "payable",
					"type": "function"
				}
			],
			"devdoc": {
				"methods": {}
			},
			"evm": {
				"assembly": "    /* \"mappingWithStructs.sol\":25:198  contract myContracct{\r... */\n  mstore(0x40, 0x80)\n  callvalue\n    /* \"--CODEGEN--\":8:17   */\n  dup1\n    /* \"--CODEGEN--\":5:7   */\n  iszero\n  tag_1\n  jumpi\n    /* \"--CODEGEN--\":30:31   */\n  0x0\n    /* \"--CODEGEN--\":27:28   */\n  dup1\n    /* \"--CODEGEN--\":20:32   */\n  revert\n    /* \"--CODEGEN--\":5:7   */\ntag_1:\n    /* \"mappingWithStructs.sol\":25:198  contract myContracct{\r... */\n  pop\n  dataSize(sub_0)\n  dup1\n  dataOffset(sub_0)\n  0x0\n  codecopy\n  0x0\n  return\nstop\n\nsub_0: assembly {\n        /* \"mappingWithStructs.sol\":25:198  contract myContracct{\r... */\n      mstore(0x40, 0x80)\n      jumpi(tag_1, lt(calldatasize, 0x4))\n      calldataload(0x0)\n      0x100000000000000000000000000000000000000000000000000000000\n      swap1\n      div\n      dup1\n      0x12065fe0\n      eq\n      tag_2\n      jumpi\n      dup1\n      0xcca955a0\n      eq\n      tag_3\n      jumpi\n    tag_1:\n      0x0\n      dup1\n      revert\n        /* \"mappingWithStructs.sol\":99:193  function getBalance() public view returns(uint){\r... */\n    tag_2:\n      callvalue\n        /* \"--CODEGEN--\":8:17   */\n      dup1\n        /* \"--CODEGEN--\":5:7   */\n      iszero\n      tag_4\n      jumpi\n        /* \"--CODEGEN--\":30:31   */\n      0x0\n        /* \"--CODEGEN--\":27:28   */\n      dup1\n        /* \"--CODEGEN--\":20:32   */\n      revert\n        /* \"--CODEGEN--\":5:7   */\n    tag_4:\n        /* \"mappingWithStructs.sol\":99:193  function getBalance() public view returns(uint){\r... */\n      pop\n      tag_5\n      tag_6\n      jump\t// in\n    tag_5:\n      mload(0x40)\n      dup1\n      dup3\n      dup2\n      mstore\n      0x20\n      add\n      swap2\n      pop\n      pop\n      mload(0x40)\n      dup1\n      swap2\n      sub\n      swap1\n      return\n        /* \"mappingWithStructs.sol\":52:93  function recieveMoney() public payable {} */\n    tag_3:\n      tag_7\n      tag_8\n      jump\t// in\n    tag_7:\n      stop\n        /* \"mappingWithStructs.sol\":99:193  function getBalance() public view returns(uint){\r... */\n    tag_6:\n        /* \"mappingWithStructs.sol\":141:145  uint */\n      0x0\n        /* \"mappingWithStructs.sol\":172:176  this */\n      address\n        /* \"mappingWithStructs.sol\":164:185  address(this).balance */\n      0xffffffffffffffffffffffffffffffffffffffff\n      and\n      balance\n        /* \"mappingWithStructs.sol\":157:185  return address(this).balance */\n      swap1\n      pop\n        /* \"mappingWithStructs.sol\":99:193  function getBalance() public view returns(uint){\r... */\n      swap1\n      jump\t// out\n        /* \"mappingWithStructs.sol\":52:93  function recieveMoney() public payable {} */\n    tag_8:\n      jump\t// out\n\n    auxdata: 0xa165627a7a72305820e903dac065d4f429974ece73959d77f10956f26f1dd2f3c52ede32f11138e0780029\n}\n",
				"bytecode": {
					"linkReferences": {},
					"object": "608060405234801561001057600080fd5b5060c58061001f6000396000f3fe6080604052600436106043576000357c01000000000000000000000000000000000000000000000000000000009004806312065fe0146048578063cca955a0146070575b600080fd5b348015605357600080fd5b50605a6078565b6040518082815260200191505060405180910390f35b60766097565b005b60003073ffffffffffffffffffffffffffffffffffffffff1631905090565b56fea165627a7a72305820e903dac065d4f429974ece73959d77f10956f26f1dd2f3c52ede32f11138e0780029",
					"opcodes": "PUSH1 0x80 PUSH1 0x40 MSTORE CALLVALUE DUP1 ISZERO PUSH2 0x10 JUMPI PUSH1 0x0 DUP1 REVERT JUMPDEST POP PUSH1 0xC5 DUP1 PUSH2 0x1F PUSH1 0x0 CODECOPY PUSH1 0x0 RETURN INVALID PUSH1 0x80 PUSH1 0x40 MSTORE PUSH1 0x4 CALLDATASIZE LT PUSH1 0x43 JUMPI PUSH1 0x0 CALLDATALOAD PUSH29 0x100000000000000000000000000000000000000000000000000000000 SWAP1 DIV DUP1 PUSH4 0x12065FE0 EQ PUSH1 0x48 JUMPI DUP1 PUSH4 0xCCA955A0 EQ PUSH1 0x70 JUMPI JUMPDEST PUSH1 0x0 DUP1 REVERT JUMPDEST CALLVALUE DUP1 ISZERO PUSH1 0x53 JUMPI PUSH1 0x0 DUP1 REVERT JUMPDEST POP PUSH1 0x5A PUSH1 0x78 JUMP JUMPDEST PUSH1 0x40 MLOAD DUP1 DUP3 DUP2 MSTORE PUSH1 0x20 ADD SWAP2 POP POP PUSH1 0x40 MLOAD DUP1 SWAP2 SUB SWAP1 RETURN JUMPDEST PUSH1 0x76 PUSH1 0x97 JUMP JUMPDEST STOP JUMPDEST PUSH1 0x0 ADDRESS PUSH20 0xFFFFFFFFFFFFFFFFFFFFFFFFFFFFFFFFFFFFFFFF AND BALANCE SWAP1 POP SWAP1 JUMP JUMPDEST JUMP INVALID LOG1 PUSH6 0x627A7A723058 KECCAK256 0xe9 SUB 0xda 0xc0 PUSH6 0xD4F429974ECE PUSH20 0x959D77F10956F26F1DD2F3C52EDE32F11138E078 STOP 0x29 "
				},
				"gasEstimates": {
					"creation": {
						"codeDepositCost": "39400",
						"executionCost": "93",
						"totalCost": "39493"
					},
					"external": {
						"getBalance()": "601",
						"recieveMoney()": "125"
					}
				},
				"methodIdentifiers": {
					"getBalance()": "12065fe0",
					"recieveMoney()": "cca955a0"
				}
			},
			"userdoc": {
				"methods": {}
			}
		}
	}
}